{
  "_format": "hh-sol-artifact-1",
  "contractName": "myNFT",
  "sourceName": "contracts/myNFT.sol",
  "abi": [
    {
      "inputs": [],
      "stateMutability": "nonpayable",
      "type": "constructor"
    },
    {
      "anonymous": false,
      "inputs": [
        {
          "indexed": true,
          "internalType": "address",
          "name": "owner",
          "type": "address"
        },
        {
          "indexed": true,
          "internalType": "address",
          "name": "approved",
          "type": "address"
        },
        {
          "indexed": true,
          "internalType": "uint256",
          "name": "tokenId",
          "type": "uint256"
        }
      ],
      "name": "Approval",
      "type": "event"
    },
    {
      "anonymous": false,
      "inputs": [
        {
          "indexed": true,
          "internalType": "address",
          "name": "owner",
          "type": "address"
        },
        {
          "indexed": true,
          "internalType": "address",
          "name": "operator",
          "type": "address"
        },
        {
          "indexed": false,
          "internalType": "bool",
          "name": "approved",
          "type": "bool"
        }
      ],
      "name": "ApprovalForAll",
      "type": "event"
    },
    {
      "anonymous": false,
      "inputs": [
        {
          "indexed": true,
          "internalType": "address",
          "name": "from",
          "type": "address"
        },
        {
          "indexed": true,
          "internalType": "address",
          "name": "to",
          "type": "address"
        },
        {
          "indexed": true,
          "internalType": "uint256",
          "name": "tokenId",
          "type": "uint256"
        }
      ],
      "name": "Transfer",
      "type": "event"
    },
    {
      "inputs": [
        {
          "internalType": "address",
          "name": "to",
          "type": "address"
        },
        {
          "internalType": "uint256",
          "name": "tokenId",
          "type": "uint256"
        }
      ],
      "name": "approve",
      "outputs": [],
      "stateMutability": "nonpayable",
      "type": "function"
    },
    {
      "inputs": [
        {
          "internalType": "address",
          "name": "owner",
          "type": "address"
        }
      ],
      "name": "balanceOf",
      "outputs": [
        {
          "internalType": "uint256",
          "name": "",
          "type": "uint256"
        }
      ],
      "stateMutability": "view",
      "type": "function"
    },
    {
      "inputs": [
        {
          "internalType": "uint256",
          "name": "tokenId",
          "type": "uint256"
        }
      ],
      "name": "getApproved",
      "outputs": [
        {
          "internalType": "address",
          "name": "",
          "type": "address"
        }
      ],
      "stateMutability": "view",
      "type": "function"
    },
    {
      "inputs": [
        {
          "internalType": "address",
          "name": "owner",
          "type": "address"
        },
        {
          "internalType": "address",
          "name": "operator",
          "type": "address"
        }
      ],
      "name": "isApprovedForAll",
      "outputs": [
        {
          "internalType": "bool",
          "name": "",
          "type": "bool"
        }
      ],
      "stateMutability": "view",
      "type": "function"
    },
    {
      "inputs": [],
      "name": "makeTheNFT",
      "outputs": [],
      "stateMutability": "nonpayable",
      "type": "function"
    },
    {
      "inputs": [],
      "name": "name",
      "outputs": [
        {
          "internalType": "string",
          "name": "",
          "type": "string"
        }
      ],
      "stateMutability": "view",
      "type": "function"
    },
    {
      "inputs": [
        {
          "internalType": "uint256",
          "name": "tokenId",
          "type": "uint256"
        }
      ],
      "name": "ownerOf",
      "outputs": [
        {
          "internalType": "address",
          "name": "",
          "type": "address"
        }
      ],
      "stateMutability": "view",
      "type": "function"
    },
    {
      "inputs": [
        {
          "internalType": "address",
          "name": "from",
          "type": "address"
        },
        {
          "internalType": "address",
          "name": "to",
          "type": "address"
        },
        {
          "internalType": "uint256",
          "name": "tokenId",
          "type": "uint256"
        }
      ],
      "name": "safeTransferFrom",
      "outputs": [],
      "stateMutability": "nonpayable",
      "type": "function"
    },
    {
      "inputs": [
        {
          "internalType": "address",
          "name": "from",
          "type": "address"
        },
        {
          "internalType": "address",
          "name": "to",
          "type": "address"
        },
        {
          "internalType": "uint256",
          "name": "tokenId",
          "type": "uint256"
        },
        {
          "internalType": "bytes",
          "name": "_data",
          "type": "bytes"
        }
      ],
      "name": "safeTransferFrom",
      "outputs": [],
      "stateMutability": "nonpayable",
      "type": "function"
    },
    {
      "inputs": [
        {
          "internalType": "address",
          "name": "operator",
          "type": "address"
        },
        {
          "internalType": "bool",
          "name": "approved",
          "type": "bool"
        }
      ],
      "name": "setApprovalForAll",
      "outputs": [],
      "stateMutability": "nonpayable",
      "type": "function"
    },
    {
      "inputs": [
        {
          "internalType": "bytes4",
          "name": "interfaceId",
          "type": "bytes4"
        }
      ],
      "name": "supportsInterface",
      "outputs": [
        {
          "internalType": "bool",
          "name": "",
          "type": "bool"
        }
      ],
      "stateMutability": "view",
      "type": "function"
    },
    {
      "inputs": [],
      "name": "symbol",
      "outputs": [
        {
          "internalType": "string",
          "name": "",
          "type": "string"
        }
      ],
      "stateMutability": "view",
      "type": "function"
    },
    {
      "inputs": [
        {
          "internalType": "uint256",
          "name": "tokenId",
          "type": "uint256"
        }
      ],
      "name": "tokenURI",
      "outputs": [
        {
          "internalType": "string",
          "name": "",
          "type": "string"
        }
      ],
      "stateMutability": "view",
      "type": "function"
    },
    {
      "inputs": [
        {
          "internalType": "address",
          "name": "from",
          "type": "address"
        },
        {
          "internalType": "address",
          "name": "to",
          "type": "address"
        },
        {
          "internalType": "uint256",
          "name": "tokenId",
          "type": "uint256"
        }
      ],
      "name": "transferFrom",
      "outputs": [],
      "stateMutability": "nonpayable",
      "type": "function"
    }
  ],
  "bytecode": "0x60806040523480156200001157600080fd5b506040518060400160405280600681526020017f3454204e465400000000000000000000000000000000000000000000000000008152506040518060400160405280600281526020017f3454000000000000000000000000000000000000000000000000000000000000815250816000908051906020019062000096929190620001cf565b508060019080519060200190620000af929190620001cf565b505050620000fd6040518060400160405280600f81526020017f54686973206973203454204e46542100000000000000000000000000000000008152506200010360201b62000ca41760201c565b620003ac565b620001a3816040516024016200011a9190620002c0565b6040516020818303038152906040527f41304fac000000000000000000000000000000000000000000000000000000007bffffffffffffffffffffffffffffffffffffffffffffffffffffffff19166020820180517bffffffffffffffffffffffffffffffffffffffffffffffffffffffff8381831617835250505050620001a660201b60201c565b50565b60008151905060006a636f6e736f6c652e6c6f679050602083016000808483855afa5050505050565b828054620001dd9062000336565b90600052602060002090601f0160209004810192826200020157600085556200024d565b82601f106200021c57805160ff19168380011785556200024d565b828001600101855582156200024d579182015b828111156200024c5782518255916020019190600101906200022f565b5b5090506200025c919062000260565b5090565b5b808211156200027b57600081600090555060010162000261565b5090565b60006200028c82620002e4565b620002988185620002ef565b9350620002aa81856020860162000300565b620002b5816200039b565b840191505092915050565b60006020820190508181036000830152620002dc81846200027f565b905092915050565b600081519050919050565b600082825260208201905092915050565b60005b838110156200032057808201518184015260208101905062000303565b8381111562000330576000848401525b50505050565b600060028204905060018216806200034f57607f821691505b602082108114156200036657620003656200036c565b5b50919050565b7f4e487b7100000000000000000000000000000000000000000000000000000000600052602260045260246000fd5b6000601f19601f8301169050919050565b612f2180620003bc6000396000f3fe608060405234801561001057600080fd5b50600436106100ea5760003560e01c806370a082311161008c578063a22cb46511610066578063a22cb46514610249578063b88d4fde14610265578063c87b56dd14610281578063e985e9c5146102b1576100ea565b806370a08231146101f15780637c6bd6d21461022157806395d89b411461022b576100ea565b8063095ea7b3116100c8578063095ea7b31461016d57806323b872dd1461018957806342842e0e146101a55780636352211e146101c1576100ea565b806301ffc9a7146100ef57806306fdde031461011f578063081812fc1461013d575b600080fd5b61010960048036038101906101049190611d46565b6102e1565b604051610116919061250a565b60405180910390f35b6101276103c3565b6040516101349190612525565b60405180910390f35b61015760048036038101906101529190611d98565b610455565b60405161016491906124a3565b60405180910390f35b61018760048036038101906101829190611d0a565b6104da565b005b6101a3600480360381019061019e9190611c04565b6105f2565b005b6101bf60048036038101906101ba9190611c04565b610652565b005b6101db60048036038101906101d69190611d98565b610672565b6040516101e891906124a3565b60405180910390f35b61020b60048036038101906102069190611b9f565b610724565b6040516102189190612785565b60405180910390f35b6102296107dc565b005b610233610849565b6040516102409190612525565b60405180910390f35b610263600480360381019061025e9190611cce565b6108db565b005b61027f600480360381019061027a9190611c53565b610a5c565b005b61029b60048036038101906102969190611d98565b610abe565b6040516102a89190612525565b60405180910390f35b6102cb60048036038101906102c69190611bc8565b610c10565b6040516102d8919061250a565b60405180910390f35b60007f80ac58cd000000000000000000000000000000000000000000000000000000007bffffffffffffffffffffffffffffffffffffffffffffffffffffffff1916827bffffffffffffffffffffffffffffffffffffffffffffffffffffffff191614806103ac57507f5b5e139f000000000000000000000000000000000000000000000000000000007bffffffffffffffffffffffffffffffffffffffffffffffffffffffff1916827bffffffffffffffffffffffffffffffffffffffffffffffffffffffff1916145b806103bc57506103bb82610d3d565b5b9050919050565b6060600080546103d2906129b5565b80601f01602080910402602001604051908101604052809291908181526020018280546103fe906129b5565b801561044b5780601f106104205761010080835404028352916020019161044b565b820191906000526020600020905b81548152906001019060200180831161042e57829003601f168201915b5050505050905090565b600061046082610da7565b61049f576040517f08c379a0000000000000000000000000000000000000000000000000000000008152600401610496906126e5565b60405180910390fd5b6004600083815260200190815260200160002060009054906101000a900473ffffffffffffffffffffffffffffffffffffffff169050919050565b60006104e582610672565b90508073ffffffffffffffffffffffffffffffffffffffff168373ffffffffffffffffffffffffffffffffffffffff161415610556576040517f08c379a000000000000000000000000000000000000000000000000000000000815260040161054d90612745565b60405180910390fd5b8073ffffffffffffffffffffffffffffffffffffffff16610575610e13565b73ffffffffffffffffffffffffffffffffffffffff1614806105a457506105a38161059e610e13565b610c10565b5b6105e3576040517f08c379a00000000000000000000000000000000000000000000000000000000081526004016105da90612625565b60405180910390fd5b6105ed8383610e1b565b505050565b6106036105fd610e13565b82610ed4565b610642576040517f08c379a000000000000000000000000000000000000000000000000000000000815260040161063990612765565b60405180910390fd5b61064d838383610fb2565b505050565b61066d83838360405180602001604052806000815250610a5c565b505050565b6000806002600084815260200190815260200160002060009054906101000a900473ffffffffffffffffffffffffffffffffffffffff169050600073ffffffffffffffffffffffffffffffffffffffff168173ffffffffffffffffffffffffffffffffffffffff16141561071b576040517f08c379a000000000000000000000000000000000000000000000000000000000815260040161071290612665565b60405180910390fd5b80915050919050565b60008073ffffffffffffffffffffffffffffffffffffffff168273ffffffffffffffffffffffffffffffffffffffff161415610795576040517f08c379a000000000000000000000000000000000000000000000000000000000815260040161078c90612645565b60405180910390fd5b600360008373ffffffffffffffffffffffffffffffffffffffff1673ffffffffffffffffffffffffffffffffffffffff168152602001908152602001600020549050919050565b60006107e8600761120e565b90506107f4338261121c565b610819816040518061036001604052806103398152602001612b8b610339913961123a565b61083c604051806060016040528060288152602001612ec46028913982336112ae565b610846600761134d565b50565b606060018054610858906129b5565b80601f0160208091040260200160405190810160405280929190818152602001828054610884906129b5565b80156108d15780601f106108a6576101008083540402835291602001916108d1565b820191906000526020600020905b8154815290600101906020018083116108b457829003601f168201915b5050505050905090565b6108e3610e13565b73ffffffffffffffffffffffffffffffffffffffff168273ffffffffffffffffffffffffffffffffffffffff161415610951576040517f08c379a0000000000000000000000000000000000000000000000000000000008152600401610948906125e5565b60405180910390fd5b806005600061095e610e13565b73ffffffffffffffffffffffffffffffffffffffff1673ffffffffffffffffffffffffffffffffffffffff16815260200190815260200160002060008473ffffffffffffffffffffffffffffffffffffffff1673ffffffffffffffffffffffffffffffffffffffff16815260200190815260200160002060006101000a81548160ff0219169083151502179055508173ffffffffffffffffffffffffffffffffffffffff16610a0b610e13565b73ffffffffffffffffffffffffffffffffffffffff167f17307eab39ab6107e8899845ad3d59bd9653f200f220920489ca2b5937696c3183604051610a50919061250a565b60405180910390a35050565b610a6d610a67610e13565b83610ed4565b610aac576040517f08c379a0000000000000000000000000000000000000000000000000000000008152600401610aa390612765565b60405180910390fd5b610ab884848484611363565b50505050565b6060610ac982610da7565b610b08576040517f08c379a0000000000000000000000000000000000000000000000000000000008152600401610aff906126c5565b60405180910390fd5b6000600660008481526020019081526020016000208054610b28906129b5565b80601f0160208091040260200160405190810160405280929190818152602001828054610b54906129b5565b8015610ba15780601f10610b7657610100808354040283529160200191610ba1565b820191906000526020600020905b815481529060010190602001808311610b8457829003601f168201915b505050505090506000610bb26113bf565b9050600081511415610bc8578192505050610c0b565b600082511115610bfd578082604051602001610be592919061247f565b60405160208183030381529060405292505050610c0b565b610c06846113d6565b925050505b919050565b6000600560008473ffffffffffffffffffffffffffffffffffffffff1673ffffffffffffffffffffffffffffffffffffffff16815260200190815260200160002060008373ffffffffffffffffffffffffffffffffffffffff1673ffffffffffffffffffffffffffffffffffffffff16815260200190815260200160002060009054906101000a900460ff16905092915050565b610d3a81604051602401610cb89190612525565b6040516020818303038152906040527f41304fac000000000000000000000000000000000000000000000000000000007bffffffffffffffffffffffffffffffffffffffffffffffffffffffff19166020820180517bffffffffffffffffffffffffffffffffffffffffffffffffffffffff838183161783525050505061147d565b50565b60007f01ffc9a7000000000000000000000000000000000000000000000000000000007bffffffffffffffffffffffffffffffffffffffffffffffffffffffff1916827bffffffffffffffffffffffffffffffffffffffffffffffffffffffff1916149050919050565b60008073ffffffffffffffffffffffffffffffffffffffff166002600084815260200190815260200160002060009054906101000a900473ffffffffffffffffffffffffffffffffffffffff1673ffffffffffffffffffffffffffffffffffffffff1614159050919050565b600033905090565b816004600083815260200190815260200160002060006101000a81548173ffffffffffffffffffffffffffffffffffffffff021916908373ffffffffffffffffffffffffffffffffffffffff160217905550808273ffffffffffffffffffffffffffffffffffffffff16610e8e83610672565b73ffffffffffffffffffffffffffffffffffffffff167f8c5be1e5ebec7d5bd14f71427d1e84f3dd0314c0f7b2291e5b200ac8c7c3b92560405160405180910390a45050565b6000610edf82610da7565b610f1e576040517f08c379a0000000000000000000000000000000000000000000000000000000008152600401610f1590612605565b60405180910390fd5b6000610f2983610672565b90508073ffffffffffffffffffffffffffffffffffffffff168473ffffffffffffffffffffffffffffffffffffffff161480610f9857508373ffffffffffffffffffffffffffffffffffffffff16610f8084610455565b73ffffffffffffffffffffffffffffffffffffffff16145b80610fa95750610fa88185610c10565b5b91505092915050565b8273ffffffffffffffffffffffffffffffffffffffff16610fd282610672565b73ffffffffffffffffffffffffffffffffffffffff1614611028576040517f08c379a000000000000000000000000000000000000000000000000000000000815260040161101f90612705565b60405180910390fd5b600073ffffffffffffffffffffffffffffffffffffffff168273ffffffffffffffffffffffffffffffffffffffff161415611098576040517f08c379a000000000000000000000000000000000000000000000000000000000815260040161108f906125c5565b60405180910390fd5b6110a38383836114a6565b6110ae600082610e1b565b6001600360008573ffffffffffffffffffffffffffffffffffffffff1673ffffffffffffffffffffffffffffffffffffffff16815260200190815260200160002060008282546110fe91906128cb565b925050819055506001600360008473ffffffffffffffffffffffffffffffffffffffff1673ffffffffffffffffffffffffffffffffffffffff16815260200190815260200160002060008282546111559190612844565b92505081905550816002600083815260200190815260200160002060006101000a81548173ffffffffffffffffffffffffffffffffffffffff021916908373ffffffffffffffffffffffffffffffffffffffff160217905550808273ffffffffffffffffffffffffffffffffffffffff168473ffffffffffffffffffffffffffffffffffffffff167fddf252ad1be2c89b69c2b068fc378daa952ba7f163c4a11628f55a4df523b3ef60405160405180910390a4505050565b600081600001549050919050565b6112368282604051806020016040528060008152506114ab565b5050565b61124382610da7565b611282576040517f08c379a000000000000000000000000000000000000000000000000000000000815260040161127990612685565b60405180910390fd5b806006600084815260200190815260200160002090805190602001906112a9929190611a2b565b505050565b6113488383836040516024016112c693929190612547565b6040516020818303038152906040527fe3849f79000000000000000000000000000000000000000000000000000000007bffffffffffffffffffffffffffffffffffffffffffffffffffffffff19166020820180517bffffffffffffffffffffffffffffffffffffffffffffffffffffffff838183161783525050505061147d565b505050565b6001816000016000828254019250508190555050565b61136e848484610fb2565b61137a84848484611506565b6113b9576040517f08c379a00000000000000000000000000000000000000000000000000000000081526004016113b090612585565b60405180910390fd5b50505050565b606060405180602001604052806000815250905090565b60606113e182610da7565b611420576040517f08c379a000000000000000000000000000000000000000000000000000000000815260040161141790612725565b60405180910390fd5b600061142a6113bf565b9050600081511161144a5760405180602001604052806000815250611475565b806114548461169d565b60405160200161146592919061247f565b6040516020818303038152906040525b915050919050565b60008151905060006a636f6e736f6c652e6c6f679050602083016000808483855afa5050505050565b505050565b6114b5838361184a565b6114c26000848484611506565b611501576040517f08c379a00000000000000000000000000000000000000000000000000000000081526004016114f890612585565b60405180910390fd5b505050565b60006115278473ffffffffffffffffffffffffffffffffffffffff16611a18565b15611690578373ffffffffffffffffffffffffffffffffffffffff1663150b7a02611550610e13565b8786866040518563ffffffff1660e01b815260040161157294939291906124be565b602060405180830381600087803b15801561158c57600080fd5b505af19250505080156115bd57506040513d601f19601f820116820180604052508101906115ba9190611d6f565b60015b611640573d80600081146115ed576040519150601f19603f3d011682016040523d82523d6000602084013e6115f2565b606091505b50600081511415611638576040517f08c379a000000000000000000000000000000000000000000000000000000000815260040161162f90612585565b60405180910390fd5b805181602001fd5b63150b7a0260e01b7bffffffffffffffffffffffffffffffffffffffffffffffffffffffff1916817bffffffffffffffffffffffffffffffffffffffffffffffffffffffff191614915050611695565b600190505b949350505050565b606060008214156116e5576040518060400160405280600181526020017f30000000000000000000000000000000000000000000000000000000000000008152509050611845565b600082905060005b60008214611717578080611700906129e7565b915050600a82611710919061289a565b91506116ed565b60008167ffffffffffffffff811115611759577f4e487b7100000000000000000000000000000000000000000000000000000000600052604160045260246000fd5b6040519080825280601f01601f19166020018201604052801561178b5781602001600182028036833780820191505090505b5090505b6000851461183e576001826117a491906128cb565b9150600a856117b39190612a30565b60306117bf9190612844565b60f81b8183815181106117fb577f4e487b7100000000000000000000000000000000000000000000000000000000600052603260045260246000fd5b60200101907effffffffffffffffffffffffffffffffffffffffffffffffffffffffffffff1916908160001a905350600a85611837919061289a565b945061178f565b8093505050505b919050565b600073ffffffffffffffffffffffffffffffffffffffff168273ffffffffffffffffffffffffffffffffffffffff1614156118ba576040517f08c379a00000000000000000000000000000000000000000000000000000000081526004016118b1906126a5565b60405180910390fd5b6118c381610da7565b15611903576040517f08c379a00000000000000000000000000000000000000000000000000000000081526004016118fa906125a5565b60405180910390fd5b61190f600083836114a6565b6001600360008473ffffffffffffffffffffffffffffffffffffffff1673ffffffffffffffffffffffffffffffffffffffff168152602001908152602001600020600082825461195f9190612844565b92505081905550816002600083815260200190815260200160002060006101000a81548173ffffffffffffffffffffffffffffffffffffffff021916908373ffffffffffffffffffffffffffffffffffffffff160217905550808273ffffffffffffffffffffffffffffffffffffffff16600073ffffffffffffffffffffffffffffffffffffffff167fddf252ad1be2c89b69c2b068fc378daa952ba7f163c4a11628f55a4df523b3ef60405160405180910390a45050565b600080823b905060008111915050919050565b828054611a37906129b5565b90600052602060002090601f016020900481019282611a595760008555611aa0565b82601f10611a7257805160ff1916838001178555611aa0565b82800160010185558215611aa0579182015b82811115611a9f578251825591602001919060010190611a84565b5b509050611aad9190611ab1565b5090565b5b80821115611aca576000816000905550600101611ab2565b5090565b6000611ae1611adc846127d1565b6127a0565b905082815260208101848484011115611af957600080fd5b611b04848285612973565b509392505050565b600081359050611b1b81612b2e565b92915050565b600081359050611b3081612b45565b92915050565b600081359050611b4581612b5c565b92915050565b600081519050611b5a81612b5c565b92915050565b600082601f830112611b7157600080fd5b8135611b81848260208601611ace565b91505092915050565b600081359050611b9981612b73565b92915050565b600060208284031215611bb157600080fd5b6000611bbf84828501611b0c565b91505092915050565b60008060408385031215611bdb57600080fd5b6000611be985828601611b0c565b9250506020611bfa85828601611b0c565b9150509250929050565b600080600060608486031215611c1957600080fd5b6000611c2786828701611b0c565b9350506020611c3886828701611b0c565b9250506040611c4986828701611b8a565b9150509250925092565b60008060008060808587031215611c6957600080fd5b6000611c7787828801611b0c565b9450506020611c8887828801611b0c565b9350506040611c9987828801611b8a565b925050606085013567ffffffffffffffff811115611cb657600080fd5b611cc287828801611b60565b91505092959194509250565b60008060408385031215611ce157600080fd5b6000611cef85828601611b0c565b9250506020611d0085828601611b21565b9150509250929050565b60008060408385031215611d1d57600080fd5b6000611d2b85828601611b0c565b9250506020611d3c85828601611b8a565b9150509250929050565b600060208284031215611d5857600080fd5b6000611d6684828501611b36565b91505092915050565b600060208284031215611d8157600080fd5b6000611d8f84828501611b4b565b91505092915050565b600060208284031215611daa57600080fd5b6000611db884828501611b8a565b91505092915050565b611dca816128ff565b82525050565b611dd981612911565b82525050565b6000611dea82612801565b611df48185612817565b9350611e04818560208601612982565b611e0d81612b1d565b840191505092915050565b6000611e238261280c565b611e2d8185612828565b9350611e3d818560208601612982565b611e4681612b1d565b840191505092915050565b6000611e5c8261280c565b611e668185612839565b9350611e76818560208601612982565b80840191505092915050565b6000611e8f603283612828565b91507f4552433732313a207472616e7366657220746f206e6f6e20455243373231526560008301527f63656976657220696d706c656d656e74657200000000000000000000000000006020830152604082019050919050565b6000611ef5601c83612828565b91507f4552433732313a20746f6b656e20616c7265616479206d696e746564000000006000830152602082019050919050565b6000611f35602483612828565b91507f4552433732313a207472616e7366657220746f20746865207a65726f2061646460008301527f72657373000000000000000000000000000000000000000000000000000000006020830152604082019050919050565b6000611f9b601983612828565b91507f4552433732313a20617070726f766520746f2063616c6c6572000000000000006000830152602082019050919050565b6000611fdb602c83612828565b91507f4552433732313a206f70657261746f7220717565727920666f72206e6f6e657860008301527f697374656e7420746f6b656e00000000000000000000000000000000000000006020830152604082019050919050565b6000612041603883612828565b91507f4552433732313a20617070726f76652063616c6c6572206973206e6f74206f7760008301527f6e6572206e6f7220617070726f76656420666f7220616c6c00000000000000006020830152604082019050919050565b60006120a7602a83612828565b91507f4552433732313a2062616c616e636520717565727920666f7220746865207a6560008301527f726f2061646472657373000000000000000000000000000000000000000000006020830152604082019050919050565b600061210d602983612828565b91507f4552433732313a206f776e657220717565727920666f72206e6f6e657869737460008301527f656e7420746f6b656e00000000000000000000000000000000000000000000006020830152604082019050919050565b6000612173602e83612828565b91507f45524337323155524953746f726167653a2055524920736574206f66206e6f6e60008301527f6578697374656e7420746f6b656e0000000000000000000000000000000000006020830152604082019050919050565b60006121d9602083612828565b91507f4552433732313a206d696e7420746f20746865207a65726f20616464726573736000830152602082019050919050565b6000612219603183612828565b91507f45524337323155524953746f726167653a2055524920717565727920666f722060008301527f6e6f6e6578697374656e7420746f6b656e0000000000000000000000000000006020830152604082019050919050565b600061227f602c83612828565b91507f4552433732313a20617070726f76656420717565727920666f72206e6f6e657860008301527f697374656e7420746f6b656e00000000000000000000000000000000000000006020830152604082019050919050565b60006122e5602983612828565b91507f4552433732313a207472616e73666572206f6620746f6b656e2074686174206960008301527f73206e6f74206f776e00000000000000000000000000000000000000000000006020830152604082019050919050565b600061234b602f83612828565b91507f4552433732314d657461646174613a2055524920717565727920666f72206e6f60008301527f6e6578697374656e7420746f6b656e00000000000000000000000000000000006020830152604082019050919050565b60006123b1602183612828565b91507f4552433732313a20617070726f76616c20746f2063757272656e74206f776e6560008301527f72000000000000000000000000000000000000000000000000000000000000006020830152604082019050919050565b6000612417603183612828565b91507f4552433732313a207472616e736665722063616c6c6572206973206e6f74206f60008301527f776e6572206e6f7220617070726f7665640000000000000000000000000000006020830152604082019050919050565b61247981612969565b82525050565b600061248b8285611e51565b91506124978284611e51565b91508190509392505050565b60006020820190506124b86000830184611dc1565b92915050565b60006080820190506124d36000830187611dc1565b6124e06020830186611dc1565b6124ed6040830185612470565b81810360608301526124ff8184611ddf565b905095945050505050565b600060208201905061251f6000830184611dd0565b92915050565b6000602082019050818103600083015261253f8184611e18565b905092915050565b600060608201905081810360008301526125618186611e18565b90506125706020830185612470565b61257d6040830184611dc1565b949350505050565b6000602082019050818103600083015261259e81611e82565b9050919050565b600060208201905081810360008301526125be81611ee8565b9050919050565b600060208201905081810360008301526125de81611f28565b9050919050565b600060208201905081810360008301526125fe81611f8e565b9050919050565b6000602082019050818103600083015261261e81611fce565b9050919050565b6000602082019050818103600083015261263e81612034565b9050919050565b6000602082019050818103600083015261265e8161209a565b9050919050565b6000602082019050818103600083015261267e81612100565b9050919050565b6000602082019050818103600083015261269e81612166565b9050919050565b600060208201905081810360008301526126be816121cc565b9050919050565b600060208201905081810360008301526126de8161220c565b9050919050565b600060208201905081810360008301526126fe81612272565b9050919050565b6000602082019050818103600083015261271e816122d8565b9050919050565b6000602082019050818103600083015261273e8161233e565b9050919050565b6000602082019050818103600083015261275e816123a4565b9050919050565b6000602082019050818103600083015261277e8161240a565b9050919050565b600060208201905061279a6000830184612470565b92915050565b6000604051905081810181811067ffffffffffffffff821117156127c7576127c6612aee565b5b8060405250919050565b600067ffffffffffffffff8211156127ec576127eb612aee565b5b601f19601f8301169050602081019050919050565b600081519050919050565b600081519050919050565b600082825260208201905092915050565b600082825260208201905092915050565b600081905092915050565b600061284f82612969565b915061285a83612969565b9250827fffffffffffffffffffffffffffffffffffffffffffffffffffffffffffffffff0382111561288f5761288e612a61565b5b828201905092915050565b60006128a582612969565b91506128b083612969565b9250826128c0576128bf612a90565b5b828204905092915050565b60006128d682612969565b91506128e183612969565b9250828210156128f4576128f3612a61565b5b828203905092915050565b600061290a82612949565b9050919050565b60008115159050919050565b60007fffffffff0000000000000000000000000000000000000000000000000000000082169050919050565b600073ffffffffffffffffffffffffffffffffffffffff82169050919050565b6000819050919050565b82818337600083830152505050565b60005b838110156129a0578082015181840152602081019050612985565b838111156129af576000848401525b50505050565b600060028204905060018216806129cd57607f821691505b602082108114156129e1576129e0612abf565b5b50919050565b60006129f282612969565b91507fffffffffffffffffffffffffffffffffffffffffffffffffffffffffffffffff821415612a2557612a24612a61565b5b600182019050919050565b6000612a3b82612969565b9150612a4683612969565b925082612a5657612a55612a90565b5b828206905092915050565b7f4e487b7100000000000000000000000000000000000000000000000000000000600052601160045260246000fd5b7f4e487b7100000000000000000000000000000000000000000000000000000000600052601260045260246000fd5b7f4e487b7100000000000000000000000000000000000000000000000000000000600052602260045260246000fd5b7f4e487b7100000000000000000000000000000000000000000000000000000000600052604160045260246000fd5b6000601f19601f8301169050919050565b612b37816128ff565b8114612b4257600080fd5b50565b612b4e81612911565b8114612b5957600080fd5b50565b612b658161291d565b8114612b7057600080fd5b50565b612b7c81612969565b8114612b8757600080fd5b5056fe646174613a6170706c69636174696f6e2f6a736f6e3b6261736536342c65776f6749434167496d3568625755694f6941694e444967563239735a6e4e6964584a6e4969774b4943416749434a6b5a584e6a636d6c7764476c766269493649434a426269424f526c51675a6e4a76625341304d6b52686348427a49474e766247786c59335270623234694c416f6749434167496d6c745957646c496a6f67496d526864474536615731685a32557663335a6e4b3368746244746959584e6c4e6a51735545684f4d6c7035516a52695633683159336f7761574649556a426a5247393254444e6b4d3252354e544e4e655456325932316a646b31715158644e517a6c365a47316a61556c49516e6c61574535735932356162464659546e646156303477565731474d4746584f446c4a626d684f59566331576c52586248564a527a4673576c685261556c49576e426157475244596a4e6e4f556c715157644e51304636546c52425a3031365658644a616a524c53554e424f474d7a556a56695231557251326c425a306c445158565a62555a36576c4e434e306c48576e4269523363325355644b63316c58546e4a5065554a74596a49314d457858576d68695632787a5a5652765a316f7962484e6951304a3657566331656b3935516d31694d6a55775446684f6347567456545a4a52456c335930686e4e306c494d45744a5130453454444e4f4d475658654778515a32396e5355523465567058546a424a53475277576b6853623142545358684e5245467353576c43623170586247356853464535535770466430314456576c4a52317077596b64334f556c744f586c5a567a5675576c4e4a646c426e6232644a52486777576c686f4d456c495a7a6c4a616c5633536c4e4a5a3256554d476c4f5645467353576c43616d4a48526e706a656a427057573147656c705453576461527a6c305956633161474a755558525a62555a36576c643463474a7456546c4a62544677576b6453633170545357646b523159305a454d7861474a74546d39694d306b355357307863467048556e4e6155306b72546b524b574749796547316a4d6b6f785932316a4f45777a556d786c5346457251327033646d4d7a576d35515a3238394967703943673d3d3454204e465420776974682049443a20257320686173206265656e206d696e74656420746f202573a2646970667358221220813d5bc66f60a634292f22edc68505dac6980fbce54f607780dc01d59c9b591464736f6c63430008000033",
  "linkReferences": {},
  "deployedLinkReferences": {}
}